{
  "_format": "hh-sol-artifact-1",
  "contractName": "Tally",
  "sourceName": "contracts/maci/Tally.sol",
  "abi": [
    {
      "inputs": [
        {
          "internalType": "address",
          "name": "verifierContract",
          "type": "address"
        },
        {
          "internalType": "address",
          "name": "vkRegistryContract",
          "type": "address"
        },
        {
          "internalType": "address",
          "name": "pollContract",
          "type": "address"
        },
        {
          "internalType": "address",
          "name": "mpContract",
          "type": "address"
        },
        {
          "internalType": "address",
          "name": "tallyOwner",
          "type": "address"
        },
        {
          "internalType": "enum DomainObjs.Mode",
          "name": "pollMode",
          "type": "uint8"
        }
      ],
      "stateMutability": "payable",
      "type": "constructor"
    },
    {
      "inputs": [
        {
          "internalType": "address",
          "name": "target",
          "type": "address"
        }
      ],
      "name": "AddressEmptyCode",
      "type": "error"
    },
    {
      "inputs": [
        {
          "internalType": "address",
          "name": "account",
          "type": "address"
        }
      ],
      "name": "AddressInsufficientBalance",
      "type": "error"
    },
    {
      "inputs": [],
      "name": "AllBallotsTallied",
      "type": "error"
    },
    {
      "inputs": [],
      "name": "AlreadyClaimed",
      "type": "error"
    },
    {
      "inputs": [],
      "name": "AlreadyInitialized",
      "type": "error"
    },
    {
      "inputs": [],
      "name": "BatchStartIndexTooLarge",
      "type": "error"
    },
    {
      "inputs": [],
      "name": "CooldownPeriodNotOver",
      "type": "error"
    },
    {
      "inputs": [],
      "name": "EnforcedPause",
      "type": "error"
    },
    {
      "inputs": [],
      "name": "ExpectedPause",
      "type": "error"
    },
    {
      "inputs": [],
      "name": "FailedInnerCall",
      "type": "error"
    },
    {
      "inputs": [],
      "name": "IncorrectSpentVoiceCredits",
      "type": "error"
    },
    {
      "inputs": [],
      "name": "InvalidBudget",
      "type": "error"
    },
    {
      "inputs": [],
      "name": "InvalidTallyVotesProof",
      "type": "error"
    },
    {
      "inputs": [],
      "name": "InvalidWithdrawal",
      "type": "error"
    },
    {
      "inputs": [],
      "name": "NoProjectHasMoreThanOneVote",
      "type": "error"
    },
    {
      "inputs": [],
      "name": "NotCompletedResults",
      "type": "error"
    },
    {
      "inputs": [],
      "name": "NotInitialized",
      "type": "error"
    },
    {
      "inputs": [],
      "name": "NotSupported",
      "type": "error"
    },
    {
      "inputs": [],
      "name": "NumSignUpsTooLarge",
      "type": "error"
    },
    {
      "inputs": [
        {
          "internalType": "address",
          "name": "owner",
          "type": "address"
        }
      ],
      "name": "OwnableInvalidOwner",
      "type": "error"
    },
    {
      "inputs": [
        {
          "internalType": "address",
          "name": "account",
          "type": "address"
        }
      ],
      "name": "OwnableUnauthorizedAccount",
      "type": "error"
    },
    {
      "inputs": [],
      "name": "ProcessingNotComplete",
      "type": "error"
    },
    {
      "inputs": [
        {
          "internalType": "address",
          "name": "token",
          "type": "address"
        }
      ],
      "name": "SafeERC20FailedOperation",
      "type": "error"
    },
    {
      "inputs": [],
      "name": "TallyBatchSizeTooLarge",
      "type": "error"
    },
    {
      "inputs": [],
      "name": "TooManyResults",
      "type": "error"
    },
    {
      "inputs": [],
      "name": "VotesNotTallied",
      "type": "error"
    },
    {
      "inputs": [],
      "name": "VotingPeriodNotPassed",
      "type": "error"
    },
    {
      "anonymous": false,
      "inputs": [
        {
          "indexed": true,
          "internalType": "uint256",
          "name": "index",
          "type": "uint256"
        },
        {
          "indexed": true,
          "internalType": "address",
          "name": "receiver",
          "type": "address"
        },
        {
          "indexed": true,
          "internalType": "uint256",
          "name": "amount",
          "type": "uint256"
        }
      ],
      "name": "Claimed",
      "type": "event"
    },
    {
      "anonymous": false,
      "inputs": [
        {
          "indexed": true,
          "internalType": "address",
          "name": "sender",
          "type": "address"
        },
        {
          "indexed": true,
          "internalType": "uint256",
          "name": "amount",
          "type": "uint256"
        }
      ],
      "name": "Deposited",
      "type": "event"
    },
    {
      "anonymous": false,
      "inputs": [
        {
          "indexed": true,
          "internalType": "address",
          "name": "previousOwner",
          "type": "address"
        },
        {
          "indexed": true,
          "internalType": "address",
          "name": "newOwner",
          "type": "address"
        }
      ],
      "name": "OwnershipTransferred",
      "type": "event"
    },
    {
      "anonymous": false,
      "inputs": [
        {
          "indexed": false,
          "internalType": "address",
          "name": "account",
          "type": "address"
        }
      ],
      "name": "Paused",
      "type": "event"
    },
    {
      "anonymous": false,
      "inputs": [
        {
          "indexed": true,
          "internalType": "uint256",
          "name": "index",
          "type": "uint256"
        },
        {
          "indexed": true,
          "internalType": "uint256",
          "name": "result",
          "type": "uint256"
        }
      ],
      "name": "ResultAdded",
      "type": "event"
    },
    {
      "anonymous": false,
      "inputs": [
        {
          "indexed": false,
          "internalType": "address",
          "name": "account",
          "type": "address"
        }
      ],
      "name": "Unpaused",
      "type": "event"
    },
    {
      "inputs": [],
      "name": "MESSAGE_DATA_LENGTH",
      "outputs": [
        {
          "internalType": "uint8",
          "name": "",
          "type": "uint8"
        }
      ],
      "stateMutability": "view",
      "type": "function"
    },
    {
      "inputs": [],
      "name": "alpha",
      "outputs": [
        {
          "internalType": "uint256",
          "name": "",
          "type": "uint256"
        }
      ],
      "stateMutability": "view",
      "type": "function"
    },
    {
      "inputs": [
        {
          "internalType": "uint256",
          "name": "budget",
          "type": "uint256"
        }
      ],
      "name": "calculateAlpha",
      "outputs": [
        {
          "internalType": "uint256",
          "name": "",
          "type": "uint256"
        }
      ],
      "stateMutability": "view",
      "type": "function"
    },
    {
      "inputs": [
        {
          "components": [
            {
              "internalType": "uint256",
              "name": "index",
              "type": "uint256"
            },
            {
              "internalType": "uint256",
              "name": "voiceCreditsPerOption",
              "type": "uint256"
            },
            {
              "internalType": "uint256[][]",
              "name": "tallyResultProof",
              "type": "uint256[][]"
            },
            {
              "internalType": "uint256",
              "name": "tallyResultSalt",
              "type": "uint256"
            },
            {
              "internalType": "uint8",
              "name": "voteOptionTreeDepth",
              "type": "uint8"
            },
            {
              "internalType": "uint256",
              "name": "spentVoiceCreditsHash",
              "type": "uint256"
            },
            {
              "internalType": "uint256",
              "name": "perVOSpentVoiceCreditsHash",
              "type": "uint256"
            }
          ],
          "internalType": "struct IPayoutStrategy.Claim",
          "name": "params",
          "type": "tuple"
        }
      ],
      "name": "claim",
      "outputs": [],
      "stateMutability": "nonpayable",
      "type": "function"
    },
    {
      "inputs": [
        {
          "internalType": "uint256",
          "name": "",
          "type": "uint256"
        }
      ],
      "name": "claimed",
      "outputs": [
        {
          "internalType": "bool",
          "name": "",
          "type": "bool"
        }
      ],
      "stateMutability": "view",
      "type": "function"
    },
    {
      "inputs": [],
      "name": "cooldown",
      "outputs": [
        {
          "internalType": "uint256",
          "name": "",
          "type": "uint256"
        }
      ],
      "stateMutability": "view",
      "type": "function"
    },
    {
      "inputs": [
        {
          "internalType": "uint256",
          "name": "amount",
          "type": "uint256"
        }
      ],
      "name": "deposit",
      "outputs": [],
      "stateMutability": "nonpayable",
      "type": "function"
    },
    {
      "inputs": [
        {
          "internalType": "uint256",
          "name": "index",
          "type": "uint256"
        },
        {
          "internalType": "uint256",
          "name": "voiceCreditsPerOption",
          "type": "uint256"
        }
      ],
      "name": "getAllocatedAmount",
      "outputs": [
        {
          "internalType": "uint256",
          "name": "",
          "type": "uint256"
        }
      ],
      "stateMutability": "view",
      "type": "function"
    },
    {
      "inputs": [
        {
          "internalType": "uint256[]",
          "name": "voiceCreditsPerOptions",
          "type": "uint256[]"
        }
      ],
      "name": "getAllocatedAmounts",
      "outputs": [
        {
          "internalType": "uint256[]",
          "name": "amounts",
          "type": "uint256[]"
        }
      ],
      "stateMutability": "view",
      "type": "function"
    },
    {
      "inputs": [
        {
          "internalType": "uint256",
          "name": "_batchStartIndex",
          "type": "uint256"
        },
        {
          "internalType": "uint256",
          "name": "_newTallyCommitment",
          "type": "uint256"
        }
      ],
      "name": "getPublicCircuitInputs",
      "outputs": [
        {
          "internalType": "uint256[]",
          "name": "publicInputs",
          "type": "uint256[]"
        }
      ],
      "stateMutability": "view",
      "type": "function"
    },
    {
      "inputs": [
        {
          "internalType": "uint256[2]",
          "name": "array",
          "type": "uint256[2]"
        }
      ],
      "name": "hash2",
      "outputs": [
        {
          "internalType": "uint256",
          "name": "result",
          "type": "uint256"
        }
      ],
      "stateMutability": "pure",
      "type": "function"
    },
    {
      "inputs": [
        {
          "internalType": "uint256[3]",
          "name": "array",
          "type": "uint256[3]"
        }
      ],
      "name": "hash3",
      "outputs": [
        {
          "internalType": "uint256",
          "name": "result",
          "type": "uint256"
        }
      ],
      "stateMutability": "pure",
      "type": "function"
    },
    {
      "inputs": [
        {
          "internalType": "uint256[4]",
          "name": "array",
          "type": "uint256[4]"
        }
      ],
      "name": "hash4",
      "outputs": [
        {
          "internalType": "uint256",
          "name": "result",
          "type": "uint256"
        }
      ],
      "stateMutability": "pure",
      "type": "function"
    },
    {
      "inputs": [
        {
          "internalType": "uint256[5]",
          "name": "array",
          "type": "uint256[5]"
        }
      ],
      "name": "hash5",
      "outputs": [
        {
          "internalType": "uint256",
          "name": "result",
          "type": "uint256"
        }
      ],
      "stateMutability": "pure",
      "type": "function"
    },
    {
      "inputs": [
        {
          "internalType": "uint256",
          "name": "left",
          "type": "uint256"
        },
        {
          "internalType": "uint256",
          "name": "right",
          "type": "uint256"
        }
      ],
      "name": "hashLeftRight",
      "outputs": [
        {
          "internalType": "uint256",
          "name": "result",
          "type": "uint256"
        }
      ],
      "stateMutability": "pure",
      "type": "function"
    },
    {
      "inputs": [
        {
          "components": [
            {
              "internalType": "uint256",
              "name": "cooldownTime",
              "type": "uint256"
            },
            {
              "internalType": "uint256",
              "name": "maxContribution",
              "type": "uint256"
            },
            {
              "internalType": "uint256",
              "name": "maxCap",
              "type": "uint256"
            },
            {
              "internalType": "address",
              "name": "payoutToken",
              "type": "address"
            }
          ],
          "internalType": "struct IPayoutStrategy.StrategyInit",
          "name": "params",
          "type": "tuple"
        }
      ],
      "name": "init",
      "outputs": [],
      "stateMutability": "nonpayable",
      "type": "function"
    },
    {
      "inputs": [],
      "name": "isTallied",
      "outputs": [
        {
          "internalType": "bool",
          "name": "tallied",
          "type": "bool"
        }
      ],
      "stateMutability": "view",
      "type": "function"
    },
    {
      "inputs": [],
      "name": "maxCap",
      "outputs": [
        {
          "internalType": "uint256",
          "name": "",
          "type": "uint256"
        }
      ],
      "stateMutability": "view",
      "type": "function"
    },
    {
      "inputs": [],
      "name": "maxContributionAmount",
      "outputs": [
        {
          "internalType": "uint256",
          "name": "",
          "type": "uint256"
        }
      ],
      "stateMutability": "view",
      "type": "function"
    },
    {
      "inputs": [],
      "name": "messageProcessor",
      "outputs": [
        {
          "internalType": "contract IMessageProcessor",
          "name": "",
          "type": "address"
        }
      ],
      "stateMutability": "view",
      "type": "function"
    },
    {
      "inputs": [],
      "name": "mode",
      "outputs": [
        {
          "internalType": "enum DomainObjs.Mode",
          "name": "",
          "type": "uint8"
        }
      ],
      "stateMutability": "view",
      "type": "function"
    },
    {
      "inputs": [],
      "name": "owner",
      "outputs": [
        {
          "internalType": "address",
          "name": "",
          "type": "address"
        }
      ],
      "stateMutability": "view",
      "type": "function"
    },
    {
      "inputs": [],
      "name": "pause",
      "outputs": [],
      "stateMutability": "nonpayable",
      "type": "function"
    },
    {
      "inputs": [],
      "name": "paused",
      "outputs": [
        {
          "internalType": "bool",
          "name": "",
          "type": "bool"
        }
      ],
      "stateMutability": "view",
      "type": "function"
    },
    {
      "inputs": [],
      "name": "poll",
      "outputs": [
        {
          "internalType": "contract IPoll",
          "name": "",
          "type": "address"
        }
      ],
      "stateMutability": "view",
      "type": "function"
    },
    {
      "inputs": [],
      "name": "recipientCount",
      "outputs": [
        {
          "internalType": "uint256",
          "name": "",
          "type": "uint256"
        }
      ],
      "stateMutability": "view",
      "type": "function"
    },
    {
      "inputs": [],
      "name": "registry",
      "outputs": [
        {
          "internalType": "contract IRecipientRegistry",
          "name": "",
          "type": "address"
        }
      ],
      "stateMutability": "view",
      "type": "function"
    },
    {
      "inputs": [],
      "name": "renounceOwnership",
      "outputs": [],
      "stateMutability": "nonpayable",
      "type": "function"
    },
    {
      "inputs": [],
      "name": "sbCommitment",
      "outputs": [
        {
          "internalType": "uint256",
          "name": "",
          "type": "uint256"
        }
      ],
      "stateMutability": "view",
      "type": "function"
    },
    {
      "inputs": [
        {
          "internalType": "uint256[]",
          "name": "array",
          "type": "uint256[]"
        }
      ],
      "name": "sha256Hash",
      "outputs": [
        {
          "internalType": "uint256",
          "name": "result",
          "type": "uint256"
        }
      ],
      "stateMutability": "pure",
      "type": "function"
    },
    {
      "inputs": [],
      "name": "tallyBatchNum",
      "outputs": [
        {
          "internalType": "uint256",
          "name": "",
          "type": "uint256"
        }
      ],
      "stateMutability": "view",
      "type": "function"
    },
    {
      "inputs": [],
      "name": "tallyCommitment",
      "outputs": [
        {
          "internalType": "uint256",
          "name": "",
          "type": "uint256"
        }
      ],
      "stateMutability": "view",
      "type": "function"
    },
    {
      "inputs": [
        {
          "internalType": "uint256",
          "name": "",
          "type": "uint256"
        }
      ],
      "name": "tallyResults",
      "outputs": [
        {
          "internalType": "uint256",
          "name": "value",
          "type": "uint256"
        },
        {
          "internalType": "bool",
          "name": "flag",
          "type": "bool"
        }
      ],
      "stateMutability": "view",
      "type": "function"
    },
    {
      "inputs": [
        {
          "internalType": "uint256",
          "name": "_newTallyCommitment",
          "type": "uint256"
        },
        {
          "internalType": "uint256[8]",
          "name": "_proof",
          "type": "uint256[8]"
        }
      ],
      "name": "tallyVotes",
      "outputs": [],
      "stateMutability": "nonpayable",
      "type": "function"
    },
    {
      "inputs": [],
      "name": "token",
      "outputs": [
        {
          "internalType": "contract IERC20",
          "name": "",
          "type": "address"
        }
      ],
      "stateMutability": "view",
      "type": "function"
    },
    {
      "inputs": [],
      "name": "totalAmount",
      "outputs": [
        {
          "internalType": "uint256",
          "name": "",
          "type": "uint256"
        }
      ],
      "stateMutability": "view",
      "type": "function"
    },
    {
      "inputs": [],
      "name": "totalSpent",
      "outputs": [
        {
          "internalType": "uint256",
          "name": "",
          "type": "uint256"
        }
      ],
      "stateMutability": "view",
      "type": "function"
    },
    {
      "inputs": [],
      "name": "totalTallyResults",
      "outputs": [
        {
          "internalType": "uint256",
          "name": "",
          "type": "uint256"
        }
      ],
      "stateMutability": "view",
      "type": "function"
    },
    {
      "inputs": [],
      "name": "totalVotesSquares",
      "outputs": [
        {
          "internalType": "uint256",
          "name": "",
          "type": "uint256"
        }
      ],
      "stateMutability": "view",
      "type": "function"
    },
    {
      "inputs": [
        {
          "internalType": "address",
          "name": "newOwner",
          "type": "address"
        }
      ],
      "name": "transferOwnership",
      "outputs": [],
      "stateMutability": "nonpayable",
      "type": "function"
    },
    {
      "inputs": [],
      "name": "unpause",
      "outputs": [],
      "stateMutability": "nonpayable",
      "type": "function"
    },
    {
      "inputs": [],
      "name": "updateSbCommitment",
      "outputs": [],
      "stateMutability": "nonpayable",
      "type": "function"
    },
    {
      "inputs": [],
      "name": "verifier",
      "outputs": [
        {
          "internalType": "contract IVerifier",
          "name": "",
          "type": "address"
        }
      ],
      "stateMutability": "view",
      "type": "function"
    },
    {
      "inputs": [
        {
          "internalType": "uint256",
          "name": "_voteOptionIndex",
          "type": "uint256"
        },
        {
          "internalType": "uint256",
          "name": "_spent",
          "type": "uint256"
        },
        {
          "internalType": "uint256[][]",
          "name": "_spentProof",
          "type": "uint256[][]"
        },
        {
          "internalType": "uint256",
          "name": "_spentSalt",
          "type": "uint256"
        },
        {
          "internalType": "uint8",
          "name": "_voteOptionTreeDepth",
          "type": "uint8"
        },
        {
          "internalType": "uint256",
          "name": "_spentVoiceCreditsHash",
          "type": "uint256"
        },
        {
          "internalType": "uint256",
          "name": "_resultCommitment",
          "type": "uint256"
        }
      ],
      "name": "verifyPerVOSpentVoiceCredits",
      "outputs": [
        {
          "internalType": "bool",
          "name": "isValid",
          "type": "bool"
        }
      ],
      "stateMutability": "view",
      "type": "function"
    },
    {
      "inputs": [
        {
          "internalType": "uint256",
          "name": "_totalSpent",
          "type": "uint256"
        },
        {
          "internalType": "uint256",
          "name": "_totalSpentSalt",
          "type": "uint256"
        },
        {
          "internalType": "uint256",
          "name": "_resultCommitment",
          "type": "uint256"
        },
        {
          "internalType": "uint256",
          "name": "_perVOSpentVoiceCreditsHash",
          "type": "uint256"
        }
      ],
      "name": "verifySpentVoiceCredits",
      "outputs": [
        {
          "internalType": "bool",
          "name": "isValid",
          "type": "bool"
        }
      ],
      "stateMutability": "view",
      "type": "function"
    },
    {
      "inputs": [
        {
          "internalType": "uint256",
          "name": "_batchStartIndex",
          "type": "uint256"
        },
        {
          "internalType": "uint256",
          "name": "_newTallyCommitment",
          "type": "uint256"
        },
        {
          "internalType": "uint256[8]",
          "name": "_proof",
          "type": "uint256[8]"
        }
      ],
      "name": "verifyTallyProof",
      "outputs": [
        {
          "internalType": "bool",
          "name": "isValid",
          "type": "bool"
        }
      ],
      "stateMutability": "view",
      "type": "function"
    },
    {
      "inputs": [
        {
          "internalType": "uint256",
          "name": "_voteOptionIndex",
          "type": "uint256"
        },
        {
          "internalType": "uint256",
          "name": "_tallyResult",
          "type": "uint256"
        },
        {
          "internalType": "uint256[][]",
          "name": "_tallyResultProof",
          "type": "uint256[][]"
        },
        {
          "internalType": "uint256",
          "name": "_tallyResultSalt",
          "type": "uint256"
        },
        {
          "internalType": "uint8",
          "name": "_voteOptionTreeDepth",
          "type": "uint8"
        },
        {
          "internalType": "uint256",
          "name": "_spentVoiceCreditsHash",
          "type": "uint256"
        },
        {
          "internalType": "uint256",
          "name": "_perVOSpentVoiceCreditsHash",
          "type": "uint256"
        }
      ],
      "name": "verifyTallyResult",
      "outputs": [
        {
          "internalType": "bool",
          "name": "isValid",
          "type": "bool"
        }
      ],
      "stateMutability": "view",
      "type": "function"
    },
    {
      "inputs": [],
      "name": "vkRegistry",
      "outputs": [
        {
          "internalType": "contract IVkRegistry",
          "name": "",
          "type": "address"
        }
      ],
      "stateMutability": "view",
      "type": "function"
    },
    {
      "inputs": [],
      "name": "voiceCreditFactor",
      "outputs": [
        {
          "internalType": "uint256",
          "name": "",
          "type": "uint256"
        }
      ],
      "stateMutability": "view",
      "type": "function"
    },
    {
      "inputs": [
        {
          "internalType": "address[]",
          "name": "receivers",
          "type": "address[]"
        },
        {
          "internalType": "uint256[]",
          "name": "amounts",
          "type": "uint256[]"
        }
      ],
      "name": "withdrawExtra",
      "outputs": [],
      "stateMutability": "nonpayable",
      "type": "function"
    }
  ],
  "bytecode": "0x6101206040526040516200394538038062003945833981016040819052620000279162000142565b858585858585816001600160a01b0381166200005d57604051631e4fbdf760e01b81526000600482015260240160405180910390fd5b6200006881620000d5565b506001600160a01b0380871660805285811660a05284811660c052831660e0528060018111156200009d576200009d620001ca565b610100816001811115620000b557620000b5620001ca565b905250506007805460ff1916905550620001e09950505050505050505050565b600080546001600160a01b038381166001600160a01b0319831681178455604051919092169283917f8be0079c531659141344cd1fd0a4f28419497f9722a3daafe3b4186f6b6457e09190a35050565b80516001600160a01b03811681146200013d57600080fd5b919050565b60008060008060008060c087890312156200015c57600080fd5b620001678762000125565b9550620001776020880162000125565b9450620001876040880162000125565b9350620001976060880162000125565b9250620001a76080880162000125565b915060a087015160028110620001bc57600080fd5b809150509295509295509295565b634e487b7160e01b600052602160045260246000fd5b60805160a05160c05160e0516101005161368d620002b8600039600081816103e60152818161085b015281816108a701528181610c7001528181611440015281816114b0015261177b015260008181610649015281816108fc01526109a50152600081816105a70152818161070801528181610aaf01528181610adf01528181610b8b01528181610f62015281816115ca0152818161165401528181611aa601528181611b2f01528181611d6c01526122ad01526000818161035e01526116e801526000818161041a0152611818015261368d6000f3fe608060405234801561001057600080fd5b50600436106102f15760003560e01c8063683f3dc31161019d578063bea140b3116100e9578063dbe7e3bd116100a2578063f2fde38b1161007c578063f2fde38b146106bb578063fb346eab146106ce578063fc0c546a146106d7578063fdc765fe146106ef57600080fd5b8063dbe7e3bd1461067d578063e3ff7606146106a0578063e57fe1a0146106a857600080fd5b8063bea140b31461060b578063c2bb1ea21461061e578063ca06232c14610631578063d0380fe214610644578063d13181b81461066b578063db1d0fd51461067457600080fd5b806393ec604f11610156578063a21fb51111610130578063a21fb511146105c9578063afb93bd3146105dc578063b6b55f25146105e5578063b9044388146105f857600080fd5b806393ec604f146105505780639cfced971461058f578063a1175279146105a257600080fd5b8063683f3dc3146104f9578063715018a614610513578063787a08a61461051b5780637b103999146105245780638456cb59146105375780638da5cb5b1461053f57600080fd5b80632b7ac3f31161025c578063498ba6d3116102155780635bb93995116101ef5780635bb93995146104bf5780635c975abb146104d257806361750293146104dd57806362a361bb146104e657600080fd5b8063498ba6d31461049057806358bfc379146104a35780635ac60608146104b657600080fd5b80632b7ac3f3146104155780632d966bf41461043c57806331fd54fd1461044f57806336a39aa6146104625780633dfb88b2146104755780633f4ba83a1461048857600080fd5b80631a39d8ef116102ae5780631a39d8ef146103ab5780631b99d669146103b357806322eabb8e146103bc57806323548b8b146103c557806323e3feb1146103ce578063295a5212146103e157600080fd5b806302365080146102f65780630eac19c91461031f57806310bc5f511461033657806313fb89321461035957806316425eeb1461039857806319cc1ec4146103a2575b600080fd5b610309610304366004612736565b610702565b6040516103169190612793565b60405180910390f35b610328600d5481565b604051908152602001610316565b6103496103443660046127a6565b610856565b6040519015158152602001610316565b6103807f000000000000000000000000000000000000000000000000000000000000000081565b6040516001600160a01b039091168152602001610316565b6103a06108f2565b005b61032860095481565b610328610a2b565b61032860055481565b610328600f5481565b610328600a5481565b6103a06103dc3660046127ea565b610aa2565b6104087f000000000000000000000000000000000000000000000000000000000000000081565b6040516103169190612850565b6103807f000000000000000000000000000000000000000000000000000000000000000081565b61034961044a3660046128b8565b610c6b565b6103a061045d36600461293c565b610d0c565b6103a0610470366004612976565b610f2a565b610328610483366004612a93565b611152565b6103a06111d3565b61032861049e366004612b10565b6111e3565b6103286104b1366004612b4c565b6112e1565b610328600b5481565b6103286104cd366004612736565b61137b565b60075460ff16610349565b61032860015481565b6103286104f4366004612be1565b611394565b610501600a81565b60405160ff9091168152602001610316565b6103a06113ce565b610328600c5481565b600854610380906001600160a01b031681565b6103a06113e0565b6000546001600160a01b0316610380565b61057a61055e366004612b10565b6004602052600090815260409020805460019091015460ff1682565b60408051928352901515602083015201610316565b61032861059d366004612c41565b6113f0565b6103807f000000000000000000000000000000000000000000000000000000000000000081565b6103496105d73660046128b8565b61142a565b61032860025481565b6103a06105f3366004612b10565b611519565b610349610606366004612c7c565b6115c3565b610328610619366004612cb3565b61189f565b61032861062c366004612736565b6118d9565b61030961063f366004612cee565b6119ce565b6103807f000000000000000000000000000000000000000000000000000000000000000081565b61032860035481565b610328600e5481565b61034961068b366004612b10565b60106020526000908152604090205460ff1681565b610349611aa1565b6103a06106b6366004612d2f565b611bd3565b6103a06106c9366004612d7f565b611cd5565b61032860065481565b6007546103809061010090046001600160a01b031681565b6103a06106fd366004612d9c565b611d15565b606060007f00000000000000000000000000000000000000000000000000000000000000006001600160a01b0316634f367f0f6040518163ffffffff1660e01b81526004016040805180830381865afa158015610763573d6000803e3d6000fd5b505050506040513d601f19601f820116820180604052508101906107879190612db4565b5060408051600580825260c082019092529192506020820160a080368337019050509150600354826000815181106107c1576107c1612dd8565b602002602001018181525050600154826001815181106107e3576107e3612dd8565b602002602001018181525050828260028151811061080357610803612dd8565b602002602001018181525050838260038151811061082357610823612dd8565b602002602001018181525050808260048151811061084357610843612dd8565b6020026020010181815250505092915050565b6000807f0000000000000000000000000000000000000000000000000000000000000000600181111561088b5761088b612818565b036108a35761089c85858585611e6f565b90506108ea565b60017f000000000000000000000000000000000000000000000000000000000000000060018111156108d7576108d7612818565b036108ea576108e7858585611ea9565b90505b949350505050565b6108fa611edb565b7f00000000000000000000000000000000000000000000000000000000000000006001600160a01b0316638763d0c46040518163ffffffff1660e01b8152600401602060405180830381865afa158015610958573d6000803e3d6000fd5b505050506040513d601f19601f8201168201806040525081019061097c9190612dee565b6109995760405163f13e1b8560e01b815260040160405180910390fd5b600354600003610a29577f00000000000000000000000000000000000000000000000000000000000000006001600160a01b031663d13181b86040518163ffffffff1660e01b8152600401602060405180830381865afa158015610a01573d6000803e3d6000fd5b505050506040513d601f19601f82011682018060405250810190610a259190612e10565b6003555b565b6007546040516370a0823160e01b815230600482015260009161010090046001600160a01b0316906370a0823190602401602060405180830381865afa158015610a79573d6000803e3d6000fd5b505050506040513d601f19601f82011682018060405250810190610a9d9190612e10565b905090565b610aaa611edb565b610ad37f0000000000000000000000000000000000000000000000000000000000000000611f08565b610adb6108f2565b60007f00000000000000000000000000000000000000000000000000000000000000006001600160a01b031663ac98e5df6040518163ffffffff1660e01b8152600401608060405180830381865afa158015610b3b573d6000803e3d6000fd5b505050506040513d601f19601f82011682018060405250810190610b5f9190612e29565b50505090506000816002610b739190612f82565b9050600081600254610b859190612f91565b905060007f00000000000000000000000000000000000000000000000000000000000000006001600160a01b0316634f367f0f6040518163ffffffff1660e01b81526004016040805180830381865afa158015610be6573d6000803e3d6000fd5b505050506040513d601f19601f82011682018060405250810190610c0a9190612db4565b509050808210610c2d5760405163b3f8c18960e01b815260040160405180910390fd5b600280546001019055610c418287876115c3565b610c5e576040516341acf34d60e01b815260040160405180910390fd5b5050506001929092555050565b6000807f00000000000000000000000000000000000000000000000000000000000000006001811115610ca057610ca0612818565b14610cbe57604051630280e1e560e61b815260040160405180910390fd5b6000610ccd858b8b8b8b611fa5565b9050610cd76126dc565b83815260208101859052610ceb828861137b565b6040820152600154610cfc8261189f565b149b9a5050505050505050505050565b60115460ff16610d2f576040516321c4e35760e21b815260040160405180910390fd5b610d376120dc565b610d3f611aa1565b1580610d4b5750600254155b15610d6957604051633e95b0b360e01b815260040160405180910390fd5b600e54600003610d8257610d7e61049e610a2b565b600e555b8035600081815260046020908152604082205492610da2918501356118d9565b600854604051636d0cee7560e01b8152853560048201529192506000916001600160a01b0390911690636d0cee7590602401600060405180830381865afa158015610df1573d6000803e3d6000fd5b505050506040513d6000823e601f3d908101601f19168201604052610e199190810190612fd7565b90508181604001516001600160a01b031685600001357f4ec90e965519d92681267467f775ada5bd214aa92c0dc93d90a5e880ce9ed02660405160405180910390a4833560009081526010602052604090205460ff1615610e8d57604051630c8d9eab60e31b815260040160405180910390fd5b8335600081815260106020526040808220805460ff191660011790559091610ee1918690610ebd908901896130ae565b60608a0135610ed260a08c0160808d016130f7565b8b60a001358c60c0013561142a565b905080610f01576040516341acf34d60e01b815260040160405180910390fd5b6040820151600754610f23916101009091046001600160a01b03169085612100565b5050505050565b60115460ff16610f4d576040516321c4e35760e21b815260040160405180910390fd5b610f55611edb565b610f5d6120dc565b6000807f00000000000000000000000000000000000000000000000000000000000000006001600160a01b0316634909229f6040518163ffffffff1660e01b81526004016040805180830381865afa158015610fbd573d6000803e3d6000fd5b505050506040513d601f19601f82011682018060405250810190610fe19190612db4565b90925090506000610ff28342613114565b9050600c54826110029190613127565b8111611021576040516352c459f960e01b815260040160405180910390fd5b6007546040516370a0823160e01b815230600482015285916000916101009091046001600160a01b0316906370a0823190602401602060405180830381865afa158015611072573d6000803e3d6000fd5b505050506040513d601f19601f820116820180604052508101906110969190612e10565b90506000805b838110156111455760008989838181106110b8576110b8612dd8565b90506020020135905060008c8c848181106110d5576110d5612dd8565b90506020020160208101906110ea9190612d7f565b90506110f68285613127565b9350848411156111195760405163c945242d60e01b815260040160405180910390fd5b811561113b5760075461113b9061010090046001600160a01b03168284612100565b505060010161109c565b5050505050505050505050565b60405163248f667760e01b815260009073__$e61c65d9562aef5fa6ab22c0f787cf1e30$__9063248f66779061118c90859060040161313a565b602060405180830381865af41580156111a9573d6000803e3d6000fd5b505050506040513d601f19601f820116820180604052508101906111cd9190612e10565b92915050565b6111db611edb565b610a29612164565b60006111ed611aa1565b15806111f95750600254155b1561121757604051633e95b0b360e01b815260040160405180910390fd5b6000600b546006546112299190612f91565b90508083101561124c57604051630757bfc960e21b815260040160405180910390fd5b600654600d54116112705760405163cf58cab560e01b815260040160405180910390fd5b600554600f54146112945760405163536cfe2160e01b815260040160405180910390fd5b600654600d546112a49190613114565b600b546112b19190612f91565b670de0b6b3a76400006112c48386613114565b6112ce9190612f91565b6112d89190613181565b9150505b919050565b60007f30644e72e131a029b85045b68181585d2833e84879b9709143e1f593f00000016002836040516020016113179190613195565b60408051601f1981840301815290829052611331916131cb565b602060405180830381855afa15801561134e573d6000803e3d6000fd5b5050506040513d601f19601f820116820180604052508101906113719190612e10565b6111cd91906131e7565b60006113856126fa565b838152602081018390526108ea815b6040516314d2f97b60e11b815260009073__$1540826e134b1b69b7091c82576ee3aadd$__906329a5f2f69061118c9085906004016131fb565b6113d6611edb565b610a2960006121b6565b6113e8611edb565b610a29612206565b604051630926f44b60e31b815260009073__$46fbdf6658faf65265971bdad66851b86c$__90634937a2589061118c908590600401613223565b60008061143a858b8b8b8b611fa5565b905060007f0000000000000000000000000000000000000000000000000000000000000000600181111561147057611470612818565b036114ac5761147d6126dc565b611487828861137b565b815260208101859052604081018490526001546114a38261189f565b1492505061150c565b60017f000000000000000000000000000000000000000000000000000000000000000060018111156114e0576114e0612818565b0361150c576114ed6126fa565b6114f7828861137b565b815260208101859052600154610cfc82611394565b5098975050505050505050565b60115460ff1661153c576040516321c4e35760e21b815260040160405180910390fd5b6115446120dc565b61154c611aa1565b15806115585750600254155b1561157657604051633e95b0b360e01b815260040160405180910390fd5b604051819033907f2da466a7b24304f47e87fa2e1e5a81b9831ce54fec19055ce277ca2f39ba42c490600090a36007546115c09061010090046001600160a01b0316333084612243565b50565b60008060007f00000000000000000000000000000000000000000000000000000000000000006001600160a01b031663ac98e5df6040518163ffffffff1660e01b8152600401608060405180830381865afa158015611626573d6000803e3d6000fd5b505050506040513d601f19601f8201168201806040525081019061164a9190612e29565b93505050915060007f00000000000000000000000000000000000000000000000000000000000000006001600160a01b031663bc14ee2b6040518163ffffffff1660e01b81526004016040805180830381865afa1580156116af573d6000803e3d6000fd5b505050506040513d601f19601f820116820180604052508101906116d3919061324b565b50905060006116e28888610702565b905060007f00000000000000000000000000000000000000000000000000000000000000006001600160a01b03166310b37e4d846001600160a01b031663652c76e46040518163ffffffff1660e01b8152600401602060405180830381865afa158015611753573d6000803e3d6000fd5b505050506040513d601f19601f820116820180604052508101906117779190613285565b87877f00000000000000000000000000000000000000000000000000000000000000006040518563ffffffff1660e01b81526004016117b994939291906132a2565b600060405180830381865afa1580156117d6573d6000803e3d6000fd5b505050506040513d6000823e601f3d908101601f191682016040526117fe9190810190613387565b60405163352a4d1560e01b81529091506001600160a01b037f0000000000000000000000000000000000000000000000000000000000000000169063352a4d1590611851908a90859087906004016134df565b602060405180830381865afa15801561186e573d6000803e3d6000fd5b505050506040513d601f19601f820116820180604052508101906118929190612dee565b9998505050505050505050565b6040516304b98e1d60e31b815260009073__$fa059fb1da6d850ca47ea49359bfe89f78$__906325cc70e89061118c9085906004016135c1565b60006118e3611aa1565b15806118ef5750600254155b1561190d57604051633e95b0b360e01b815260040160405180910390fd5b600083815260046020526040812054600b54600e54919291839182916119339190612f91565b61193d9190612f91565b6119479190612f91565b9050600084600b546119599190612f91565b9050600061196f82670de0b6b3a7640000612f91565b9050600082600e546119819190612f91565b90506000670de0b6b3a7640000826119998588613127565b6119a39190613114565b6119ad9190613181565b9050600a5481116119be5780611892565b600a549998505050505050505050565b60606119d8611aa1565b15806119e45750600254155b15611a0257604051633e95b0b360e01b815260040160405180910390fd5b81806001600160401b03811115611a1b57611a1b6129e1565b604051908082528060200260200182016040528015611a44578160200160208202803683370190505b50915060005b81811015611a9957611a7481868684818110611a6857611a68612dd8565b905060200201356118d9565b838281518110611a8657611a86612dd8565b6020908102919091010152600101611a4a565b505092915050565b6000807f00000000000000000000000000000000000000000000000000000000000000006001600160a01b031663ac98e5df6040518163ffffffff1660e01b8152600401608060405180830381865afa158015611b02573d6000803e3d6000fd5b505050506040513d601f19601f82011682018060405250810190611b269190612e29565b505050905060007f00000000000000000000000000000000000000000000000000000000000000006001600160a01b0316634f367f0f6040518163ffffffff1660e01b81526004016040805180830381865afa158015611b8a573d6000803e3d6000fd5b505050506040513d601f19601f82011682018060405250810190611bae9190612db4565b50905080611bbd836002612f82565b600254611bca9190612f91565b10159250505090565b60115460ff16611bf6576040516321c4e35760e21b815260040160405180910390fd5b611bfe611edb565b600f54600003611c8357600860009054906101000a90046001600160a01b03166001600160a01b03166322eabb8e6040518163ffffffff1660e01b8152600401602060405180830381865afa158015611c5b573d6000803e3d6000fd5b505050506040513d601f19601f82011682018060405250810190611c7f9190612e10565b600f555b600554600f5403611ca757604051630bf0542360e41b815260040160405180910390fd5b611cb08161227c565b600554600f5410156115c057604051630bf0542360e41b815260040160405180910390fd5b611cdd611edb565b6001600160a01b038116611d0c57604051631e4fbdf760e01b8152600060048201526024015b60405180910390fd5b6115c0816121b6565b611d1d611edb565b60115460ff1615611d405760405162dc149f60e41b815260040160405180910390fd5b6011805460ff191660011790558035600c5560408051635ab1bd5360e01b815290516001600160a01b037f00000000000000000000000000000000000000000000000000000000000000001691635ab1bd5391600480830192602092919082900301816000875af1158015611db9573d6000803e3d6000fd5b505050506040513d601f19601f82011682018060405250810190611ddd91906135e9565b600880546001600160a01b0319166001600160a01b0392909216919091179055611e0d6080820160608301612d7f565b600780546001600160a01b039290921661010002610100600160a81b0319909216919091179055602081013560098190556040820135600a55611e5590633b9aca0090613181565b600b819055611e65576001611e69565b600b545b600b5550565b6000611e796126dc565b838152611e86868661137b565b602082015260408101839052600154611e9e8261189f565b149695505050505050565b6000611eb36126fa565b828152611ec0858561137b565b6020820152600154611ed182611394565b1495945050505050565b6000546001600160a01b03163314610a295760405163118cdaa760e01b8152336004820152602401611d03565b600080826001600160a01b0316634909229f6040518163ffffffff1660e01b81526004016040805180830381865afa158015611f48573d6000803e3d6000fd5b505050506040513d601f19601f82011682018060405250810190611f6c9190612db4565b90925090506000611f7d8342613114565b9050818111611f9f57604051635c3017c560e11b815260040160405180910390fd5b50505050565b600080611fb36005876131e7565b90508491506000611fc2612718565b60005b8960ff168160ff1610156120cf5760005b60058160ff16101561209957848160ff160361200c5785838260ff166005811061200257612002612dd8565b6020020152612089565b848160ff16111561202957612022600182613606565b935061202d565b8093505b87878360ff1681811061204257612042612dd8565b905060200281019061205491906130ae565b8560ff1681811061206757612067612dd8565b90506020020135838260ff166005811061208357612083612dd8565b60200201525b6120928161361f565b9050611fd6565b506120a560058a613181565b98506120b260058a6131e7565b93506120bd826113f0565b94506120c88161361f565b9050611fc5565b5050505095945050505050565b60075460ff1615610a295760405163d93c066560e01b815260040160405180910390fd5b6040516001600160a01b0383811660248301526044820183905261215f91859182169063a9059cbb906064015b604051602081830303815290604052915060e01b6020820180516001600160e01b038381831617835250505050612437565b505050565b61216c61249a565b6007805460ff191690557f5db9ee0a495bf2e6ff9c91a7834c1ba4fdd244a5e8aa4e537bd38aeae4b073aa335b6040516001600160a01b03909116815260200160405180910390a1565b600080546001600160a01b038381166001600160a01b0319831681178455604051919092169283917f8be0079c531659141344cd1fd0a4f28419497f9722a3daafe3b4186f6b6457e09190a35050565b61220e6120dc565b6007805460ff191660011790557f62e78cea01bee320cd4e420270b5ea74000d11b0c9f74754ebdbfc544b05a2586121993390565b6040516001600160a01b038481166024830152838116604483015260648201839052611f9f9186918216906323b872dd9060840161212d565b612284611edb565b61228c611aa1565b6122a957604051633e95b0b360e01b815260040160405180910390fd5b60007f00000000000000000000000000000000000000000000000000000000000000006001600160a01b031663ac98e5df6040518163ffffffff1660e01b8152600401608060405180830381865afa158015612309573d6000803e3d6000fd5b505050506040513d601f19601f8201168201806040525081019061232d9190612e29565b9350600092506123419150849050806130ae565b9050905060005b818110156123eb576123e361235d85806130ae565b8381811061236d5761236d612dd8565b9050602002013585806020019061238491906130ae565b8481811061239457612394612dd8565b905060200201358680604001906123ab91906130ae565b858181106123bb576123bb612dd8565b90506020028101906123cd91906130ae565b8860a001358960e001358a61010001358a6124bd565b600101612348565b50600061240b846060013585608001358660c00135876101000135610856565b90508061242b5760405163e5d02d8b60e01b815260040160405180910390fd5b50505060600135600655565b600061244c6001600160a01b03841683612525565b9050805160001415801561247157508080602001905181019061246f9190612dee565b155b1561215f57604051635274afe760e01b81526001600160a01b0384166004820152602401611d03565b60075460ff16610a2957604051638dfc202b60e01b815260040160405180910390fd5b6124cd888888888888888861253a565b6124d8600288612f82565b600d60008282546124e99190613127565b9091555050604051879089907fe92356b9aa3bf1d9a4af67d8b43ac7584d99dc6e179b3a4f5a1f1699d54f2c2c90600090a35050505050505050565b6060612533838360006125ba565b9392505050565b600061254c8989898989878a8a61142a565b90508061256c576040516341acf34d60e01b815260040160405180910390fd5b6000898152600460205260409020600181015460ff1661259c57600580549060006125968361363e565b91905055505b6001818101805460ff19169091179055979097555050505050505050565b6060814710156125df5760405163cd78605960e01b8152306004820152602401611d03565b600080856001600160a01b031684866040516125fb91906131cb565b60006040518083038185875af1925050503d8060008114612638576040519150601f19603f3d011682016040523d82523d6000602084013e61263d565b606091505b509150915061264d868383612657565b9695505050505050565b60608261266c57612667826126b3565b612533565b815115801561268357506001600160a01b0384163b155b156126ac57604051639996b31560e01b81526001600160a01b0385166004820152602401611d03565b5080612533565b8051156126c35780518082602001fd5b604051630a12f52160e11b815260040160405180910390fd5b60405180606001604052806003906020820280368337509192915050565b60405180604001604052806002906020820280368337509192915050565b6040518060a001604052806005906020820280368337509192915050565b6000806040838503121561274957600080fd5b50508035926020909101359150565b600081518084526020808501945080840160005b838110156127885781518752958201959082019060010161276c565b509495945050505050565b6020815260006125336020830184612758565b600080600080608085870312156127bc57600080fd5b5050823594602084013594506040840135936060013592509050565b8061010081018310156111cd57600080fd5b60008061012083850312156127fe57600080fd5b8235915061280f84602085016127d8565b90509250929050565b634e487b7160e01b600052602160045260246000fd5b6002811061284c57634e487b7160e01b600052602160045260246000fd5b9052565b602081016111cd828461282e565b60008083601f84011261287057600080fd5b5081356001600160401b0381111561288757600080fd5b6020830191508360208260051b85010111156128a257600080fd5b9250929050565b60ff811681146115c057600080fd5b60008060008060008060008060e0898b0312156128d457600080fd5b883597506020890135965060408901356001600160401b038111156128f857600080fd5b6129048b828c0161285e565b90975095505060608901359350608089013561291f816128a9565b979a969950949793969295929450505060a08201359160c0013590565b60006020828403121561294e57600080fd5b81356001600160401b0381111561296457600080fd5b820160e0818503121561253357600080fd5b6000806000806040858703121561298c57600080fd5b84356001600160401b03808211156129a357600080fd5b6129af8883890161285e565b909650945060208701359150808211156129c857600080fd5b506129d58782880161285e565b95989497509550505050565b634e487b7160e01b600052604160045260246000fd5b604051606081016001600160401b0381118282101715612a1957612a196129e1565b60405290565b604080519081016001600160401b0381118282101715612a1957612a196129e1565b60405160a081016001600160401b0381118282101715612a1957612a196129e1565b604051601f8201601f191681016001600160401b0381118282101715612a8b57612a8b6129e1565b604052919050565b600060808284031215612aa557600080fd5b82601f830112612ab457600080fd5b604051608081018181106001600160401b0382111715612ad657612ad66129e1565b604052806080840185811115612aeb57600080fd5b845b81811015612b05578035835260209283019201612aed565b509195945050505050565b600060208284031215612b2257600080fd5b5035919050565b60006001600160401b03821115612b4257612b426129e1565b5060051b60200190565b60006020808385031215612b5f57600080fd5b82356001600160401b03811115612b7557600080fd5b8301601f81018513612b8657600080fd5b8035612b99612b9482612b29565b612a63565b81815260059190911b82018301908381019087831115612bb857600080fd5b928401925b82841015612bd657833582529284019290840190612bbd565b979650505050505050565b600060408284031215612bf357600080fd5b82601f830112612c0257600080fd5b612c0a612a1f565b806040840185811115612c1c57600080fd5b845b81811015612c36578035845260209384019301612c1e565b509095945050505050565b600060a08284031215612c5357600080fd5b82601f830112612c6257600080fd5b612c6a612a41565b8060a0840185811115612c1c57600080fd5b60008060006101408486031215612c9257600080fd5b8335925060208401359150612caa85604086016127d8565b90509250925092565b600060608284031215612cc557600080fd5b82601f830112612cd457600080fd5b612cdc6129f7565b806060840185811115612c1c57600080fd5b60008060208385031215612d0157600080fd5b82356001600160401b03811115612d1757600080fd5b612d238582860161285e565b90969095509350505050565b600060208284031215612d4157600080fd5b81356001600160401b03811115612d5757600080fd5b8201610120818503121561253357600080fd5b6001600160a01b03811681146115c057600080fd5b600060208284031215612d9157600080fd5b813561253381612d6a565b600060808284031215612dae57600080fd5b50919050565b60008060408385031215612dc757600080fd5b505080516020909101519092909150565b634e487b7160e01b600052603260045260246000fd5b600060208284031215612e0057600080fd5b8151801515811461253357600080fd5b600060208284031215612e2257600080fd5b5051919050565b60008060008060808587031215612e3f57600080fd5b8451612e4a816128a9565b6020860151909450612e5b816128a9565b6040860151909350612e6c816128a9565b6060860151909250612e7d816128a9565b939692955090935050565b634e487b7160e01b600052601160045260246000fd5b600181815b80851115612ed9578160001904821115612ebf57612ebf612e88565b80851615612ecc57918102915b93841c9390800290612ea3565b509250929050565b600082612ef0575060016111cd565b81612efd575060006111cd565b8160018114612f135760028114612f1d57612f39565b60019150506111cd565b60ff841115612f2e57612f2e612e88565b50506001821b6111cd565b5060208310610133831016604e8410600b8410161715612f5c575081810a6111cd565b612f668383612e9e565b8060001904821115612f7a57612f7a612e88565b029392505050565b600061253360ff841683612ee1565b80820281158282048414176111cd576111cd612e88565b60005b83811015612fc3578181015183820152602001612fab565b50506000910152565b80516112dc81612d6a565b60006020808385031215612fea57600080fd5b82516001600160401b038082111561300157600080fd5b908401906060828703121561301557600080fd5b61301d6129f7565b82518152838301518281111561303257600080fd5b8301601f8101881361304357600080fd5b805183811115613055576130556129e1565b613067601f8201601f19168701612a63565b9350808452888682840101111561307d57600080fd5b61308c81878601888501612fa8565b5050818482015261309f60408401612fcc565b60408201529695505050505050565b6000808335601e198436030181126130c557600080fd5b8301803591506001600160401b038211156130df57600080fd5b6020019150600581901b36038213156128a257600080fd5b60006020828403121561310957600080fd5b8135612533816128a9565b818103818111156111cd576111cd612e88565b808201808211156111cd576111cd612e88565b60808101818360005b6004811015613162578151835260209283019290910190600101613143565b50505092915050565b634e487b7160e01b600052601260045260246000fd5b6000826131905761319061316b565b500490565b815160009082906020808601845b838110156131bf578151855293820193908201906001016131a3565b50929695505050505050565b600082516131dd818460208701612fa8565b9190910192915050565b6000826131f6576131f661316b565b500690565b60408101818360005b6002811015613162578151835260209283019290910190600101613204565b60a08101818360005b600581101561316257815183526020928301929091019060010161322c565b6000806040838503121561325e57600080fd5b825161326981612d6a565b602084015190925061327a81612d6a565b809150509250929050565b60006020828403121561329757600080fd5b8151612533816128a9565b60ff8581168252848116602083015283166040820152608081016132c9606083018461282e565b95945050505050565b6000604082840312156132e457600080fd5b6132ec612a1f565b9050815181526020820151602082015292915050565b600082601f83011261331357600080fd5b61331b612a1f565b80604084018581111561332d57600080fd5b845b81811015612c3657805184526020938401930161332f565b60006080828403121561335957600080fd5b613361612a1f565b905061336d8383613302565b815261337c8360408401613302565b602082015292915050565b6000602080838503121561339a57600080fd5b82516001600160401b03808211156133b157600080fd5b908401906101e082870312156133c657600080fd5b6133ce612a41565b6133d887846132d2565b815260406133e888828601613347565b858301526133f98860c08601613347565b8183015261340b886101408601613347565b60608301526101c08401518381111561342357600080fd5b80850194505087601f85011261343857600080fd5b83519250613448612b9484612b29565b83815260069390931b8401850192858101908985111561346757600080fd5b948601945b8486101561348d5761347e8a876132d2565b8252948201949086019061346c565b60808401525090979650505050505050565b8060005b6002811015611f9f5781518452602093840193909101906001016134a3565b6134cd82825161349f565b602081015161215f604084018261349f565b600061014061010080878537818185015250610320830161350d828501875180518252602090810151910152565b60209150818601516135236101808601826134c2565b506040808701516135386102008701826134c2565b50606087015161354c6102808701826134c2565b5060808701516101e06103008701528051928390528301916000906103408701905b8083101561359f5761358b82865180518252602090810151910152565b93850193600192909201919083019061356e565b508681036101208801526135b38189612758565b9a9950505050505050505050565b60608101818360005b60038110156131625781518352602092830192909101906001016135ca565b6000602082840312156135fb57600080fd5b815161253381612d6a565b60ff82811682821603908111156111cd576111cd612e88565b600060ff821660ff810361363557613635612e88565b60010192915050565b60006001820161365057613650612e88565b506001019056fea2646970667358221220ef153c46c17be8e05fd300baa40b52db78039d92a374e60d479d0be813a2b1dd64736f6c63430008140033",
  "linkReferences": {
    "maci-contracts/contracts/crypto/PoseidonT3.sol": {
      "PoseidonT3": [
        {
          "length": 20,
          "start": 5726
        }
      ]
    },
    "maci-contracts/contracts/crypto/PoseidonT4.sol": {
      "PoseidonT4": [
        {
          "length": 20,
          "start": 7017
        }
      ]
    },
    "maci-contracts/contracts/crypto/PoseidonT5.sol": {
      "PoseidonT5": [
        {
          "length": 20,
          "start": 5148
        }
      ]
    },
    "maci-contracts/contracts/crypto/PoseidonT6.sol": {
      "PoseidonT6": [
        {
          "length": 20,
          "start": 5818
        }
      ]
    }
  },
  "deployedLinkReferences": {
    "maci-contracts/contracts/crypto/PoseidonT3.sol": {
      "PoseidonT3": [
        {
          "length": 20,
          "start": 5030
        }
      ]
    },
    "maci-contracts/contracts/crypto/PoseidonT4.sol": {
      "PoseidonT4": [
        {
          "length": 20,
          "start": 6321
        }
      ]
    },
    "maci-contracts/contracts/crypto/PoseidonT5.sol": {
      "PoseidonT5": [
        {
          "length": 20,
          "start": 4452
        }
      ]
    },
    "maci-contracts/contracts/crypto/PoseidonT6.sol": {
      "PoseidonT6": [
        {
          "length": 20,
          "start": 5122
        }
      ]
    }
  }
}